:020000040800F2
:1000000068A000200D6300083512000837120008B0
:100010003B1200083F1200084312000800000000D5
:10002000000000000000000000000000471200086F
:1000300049120008000000004B1200084D12000891
:100040002763000827630008276300082763000868
:100050002763000827630008276300082763000858
:100060002763000827630008276300082763000848
:100070002763000827630008276300082763000838
:100080002763000827630008276300082763000828
:100090002763000827630008276300082763000818
:1000A0002763000827630008276300082763000808
:1000B0002763000827630008B98C0008276300083D
:1000C00027630008276300082763000827630008E8
:1000D000276300088162000827630008276300087F
:1000E00027630008276300082763000827630008C8
:1000F00027630008276300082763000827630008B8
:1001000027630008276300082763000827630008A7
:100110002763000827630008276300082763000897
:100120002763000827630008276300082763000887
:1001300000F002F800F06BF80AA090E8000C82448E
:100140008344AAF10107DA4501D100F060F8AFF26B
:10015000090EBAE80F0013F0010F18BFFB1A43F0A5
:1001600001031847D8100100F81001000A444FF0AD
:10017000000C10F8013B13F0070408BF10F8014B06
:100180001D1108BF10F8015B641E05D010F8016B4B
:10019000641E01F8016BF9D113F0080F1EBF10F8AF
:1001A000014BAD1C0C1B09D16D1E58BF01F801CBD2
:1001B000FAD505E014F8016B01F8016B6D1EF9D555
:1001C0009142D6D37047000000230024002500266A
:1001D000103A28BF78C1FBD8520728BF30C148BFAA
:1001E0000B60704764290DF0638575290DF06085FB
:1001F00078290DF0998563290DF07C8773290DF01E
:100200008187002070471FB51FBD10B510BD0DF0D0
:10021000B3FF1146FFF7F7FF00F047FF0DF0D1FFE6
:1002200003B4FFF7F2FF03BC05F0D0FF2DE9FE4356
:1002300000261D254FF0140840F2C7173C1F4FF64B
:10024000FF7002F043FC0F234FF44872194640F24E
:10025000DB1003F0AFF83C234FF44872194640F22C
:10026000DB1003F0A7F84FF4F0734FF4EB720021AA
:10027000104603F09FF81F20FE4908800020182137
:10028000FDA20B46CDE9002102904FF496721B218E
:100290004FF4FA700DF011FC0020F6490880234657
:1002A0002A464146284603F085F823463A46214629
:1002B000284603F07FF808F10603281F82B2414662
:1002C000284603F077F808F106032A1D4146284620
:1002D00003F070F8201F83B2B81F82B2214638465F
:1002E00003F068F8231DB81F82B22146384603F098
:1002F00061F81020A11C6A1F009090B20123002217
:1003000003F0B6F9E1A01021CDE90010A5F1170125
:1003100088B210231422414603F053FADCA01021C6
:10032000CDE90010611D7A1F90B21023202203F046
:1003300048FA00BF12E0A11E8BB206EB860105EB66
:10034000C10127318AB206EB860105EBC1012731D5
:1003500088B2214603F02EF8701CC6B20A2EEADBE2
:10036000002616E006EB460000EB0610A4EB40006A
:10037000253883B2A81C82B206EB460000EB0610BB
:10038000A4EB4000253881B2284603F013F8701C16
:10039000C6B20A2EE6DBBFA018210B46C822CDE963
:1003A0000010FA2140F2DB1003F00BFA00201821B4
:1003B000BAA20B46CDE9002102904FF4C8729621F3
:1003C00040F2DB100DF079FB00201821B5A20B469E
:1003D000CDE9002102904FF4C872962140F27620B8
:1003E0000DF06BFB00201821AAA20B46CDE90021DD
:1003F00002904FF4C872FA2140F2DB100DF05DFB61
:1004000000201821A9A20B46CDE9002102904FF44B
:10041000C872FA2140F276200DF04FFB002018211F
:10042000A4A20B46CDE9002102904FF4C8724FF40C
:10043000AF7140F2DB100DF040FB002018219FA2AD
:100440000B46CDE9002102904FF4C8724FF4AF7112
:1004500040F276200DF031FB002018210423CDE975
:10046000001098480288FA2140F2262003F04AF949
:10047000002018210423CDE9001093480288FA21B6
:1004800040F2C12003F03EF9002018210423CDE9F9
:1004900000108E4802884FF4AF7140F2262003F01E
:1004A00031F9002018210423CDE900108848028882
:1004B0004FF4AF7140F2C12003F024F94FF47840BB
:1004C0006C4908804FF4C8734FF49672FA21962055
:1004D00002F0C8FFBDE8FE8310B5FF247D484168E7
:1004E000002088477C4800887C4908807C48008838
:1004F0007C49088077488089774908807548C08A98
:1005000077490880754800884FF6FF71884271D19D
:10051000744800888842FAD16F480088884269D0C0
:100520006F4800888842FAD000206F4908606A4806
:100530000088B0F5FA7F11DD67480088B0F5167FB6
:100540000CDA6748008840F26311884206DD64488F
:100550000088B0F5EB7F01DA102471E15E48008875
:100560001E280DDD5C480088E62809DA5C48008812
:10057000322805DD5A480088FC2801DAF1245FE1C1
:1005800055480088E6280EDD53480088B0F5D77F2F
:1005900009DA53480088322805DD51480088FC28D4
:1005A00001DAF2244CE14C4800881E280EDD4A484E
:1005B0000088E6280ADA4A480088FC2806DD484810
:1005C0000088B0F5E17F01DAF32439E14248008880
:1005D000E62810DD40480088B0F5D77F0BDA4048A8
:1005E0000088FC2807DD3E480088B0F5E17F02DA8C
:1005F000F42425E120E138480088B0F5167F11DDAC
:1006000035480088B0F52F7F0CDA3548008840F275
:100610006311884206DD32480088B0F5EB7F01DACD
:1006200000240DE12C480088B0F5FA7F0EDD2A4841
:100630000088B0F5167F09DA294800880A2805DD08
:10064000274800887D2801DA0124F9E02248008843
:10065000B0F5167F4ADD20480088B0F52F7F45DAD7
:100660001F4800880A2841DD1D4800887D283DDAA2
:100670000224E5E024000020BCE0B2E2502F56BD89
:10068000E1B9FBD7F8B1EAD5B9CABE00502F0000D6
:10069000562F0000505F6D696E3A000050B2E2D6EE
:1006A000B53A000056B2E2D6B53A0000505F6D612F
:1006B000783A0000565F6D696E3A0000565F6D61D2
:1006C000783A00000A000020080000200E000020F8
:1006D0000C0000203000002002000020000000205C
:1006E0000600002004000020A0012142FE480088EE
:1006F000B0F52F7F0EDDFC480088B0F5487F09DAA1
:10070000FA4800880A2805DDF84800887D2801DAC3
:10071000032495E0F4480088B0F5FA7F0EDDF24836
:100720000088B0F5167F09DAF04800887D2805DDDD
:10073000EE480088F02801DA042481E0EA480088C5
:10074000B0F5167F0EDDE8480088B0F52F7F09DA96
:10075000E64800887D2805DDE4480088F02801DAB5
:1007600005246DE0E0480088B0F52F7F0EDDDE48FF
:100770000088B0F5487F09DADC4800887D2805DD6F
:10078000DA480088F02801DA062459E0D6480088C3
:10079000B0F5FA7F0FDDD4480088B0F5167F0ADA8D
:1007A000D2480088F02806DDD0480088B0F5B17F37
:1007B00001DC072444E0CC480088B0F5167F0FDD4B
:1007C000C9480088B0F52F7F0ADAC8480088F028A9
:1007D00006DDC6480088B0F5B17F01DC08242FE0B3
:1007E000C1480088B0F52F7F0FDDBF480088B0F505
:1007F000487F0ADABD480088F02806DDBB4800883B
:10080000B0F5B17F01DC09241AE0B7480088B0F5E3
:100810002F7F15DDB4480088B0F5487F10DAB34863
:10082000008840F2631188420ADDB0480088B0F5C4
:10083000EB7F05DA112403E00120AD490860FF24B5
:10084000204610BDFEB50126AA48048800201821C4
:1008500006232246CDE900104FF4AF71C82002F004
:1008600051FF03E1FFF738FE0546082D63D007DC92
:10087000082D73D2DFE805F0272E353C434A515846
:10088000F12D0ED006DC092D5CD0102D61D0112D7C
:1008900064D116E0F22D08D0F32D0AD0F42D5DD1ED
:1008A0000BE001269348048858E002269248048809
:1008B00054E003269148048850E0042690480488B8
:1008C0004CE005264AE004EB8400002101EB4000E7
:1008D00084B243E004EB8400012101EB400084B2C8
:1008E0003CE004EB8400022101EB400084B235E0DF
:1008F00004EB8400032101EB400084B22EE004EB02
:100900008400042101EB400084B227E004EB840062
:10091000052101EB400084B220E004EB84000621B5
:1009200001EB400084B219E004EB8400072101EBE5
:10093000400084B212E004EB8400082101EB400087
:1009400084B20BE004EB8400092101EB400084B287
:1009500004E00A2094FBF0F084B200BF00BF002046
:10096000182106232246CDE900104FF4AF71C820AC
:1009700002F0C8FE0020182106232A46CDE9001007
:100980004FF4AF714FF4967002F0BCFE012E06D00A
:10099000022E07D0032E08D0042E0CD108E05548B3
:1009A000048008E05448048005E05448048002E0D4
:1009B0005348048000BF00BF002018210423CDE964
:1009C00000104C480288BE21962002F09BFE0020B9
:1009D00018210423CDE9001047480288BE214FF4B6
:1009E000AF7002F08FFE002018210423CDE9001023
:1009F000424802884FF49171962002F083FE002055
:100A000018210423CDE900103D4802884FF491716C
:100A10004FF4AF7002F076FE3648008836490988F8
:100A2000884205DC354800883549098888420DDD53
:100A30000020182133A20B46CDE900210290FA22B2
:100A40004FF4E17164200DF038F80CE0002018211B
:100A500032A20B46CDE900210290FA224FF4E17157
:100A600064200DF02AF8052E00D100E0FAE600BF60
:100A7000FEBD00B58FB005200E904FF4FA700D90BA
:100A800040F24E200C904FF42A700B9040F202304E
:100A90000A900A2009907D200890F020079040F2EB
:100AA000631006904FF4EB700590002021490880F8
:100AB0000598401D04900D98401F80B2039009983E
:100AC000401F80B202900D98401F80B2019002A991
:100AD0000EC902F06FFC0598401D04900A98401D55
:100AE00003900998401F27E0020000200600002024
:100AF000A00121420A000020080000200E00002072
:100B00000C000020C7EBBCECB2E9B2CECAFDCAC7EC
:100B1000B7F1BACFCACA212121000000202020202D
:100B200020202020202020202020202020202020C5
:100B3000202000002400002080B202900A98401D6E
:100B4000019002A90EC902F035FC0998401F80B23D
:100B500004900A98401D03900998401F80B20290AB
:100B60000D98401F80B2019002A90EC902F022FC2C
:100B70000598401D04900A98401D03900598401D5B
:100B800002900D98401F80B2019002A90EC902F098
:100B900011FC0E990898401A04900C98401A039082
:100BA0000998084402900D980844019002A90EC9C2
:100BB00002F058FC0E990798401A04900C98401ABD
:100BC00003900898084402900D980844019002A9E7
:100BD0000EC902F047FC0E990698401A04900C9832
:100BE000401A03900798084402900D980844019019
:100BF00002A90EC902F036FC0E990598401A04901D
:100C00000C98401A03900698084402900D980844E6
:100C1000019002A90EC902F025FC0E990898401A0D
:100C200004900B98401A03900998084402900C987D
:100C30000844019002A90EC902F014FC0E9907980D
:100C4000401A04900B98401A0390089808440290A8
:100C50000C980844019002A90EC902F003FC0E99F9
:100C60000698401A04900B98401A0390079808447D
:100C700002900C980844019002A90EC902F0F2FB00
:100C80000E990598401A04900B98401A0390069804
:100C9000084402900C980844019002A90EC902F081
:100CA000E1FB0E990898401A04900A98401A0390A4
:100CB0000998084402900B980844019002A90EC9B3
:100CC00002F0D0FB0E990798401A04900A98401A37
:100CD00003900898084402900B980844019002A9D8
:100CE0000EC902F0BFFB0E990698401A04900A98AC
:100CF000401A03900798084402900B98084401900A
:100D000002A90EC902F0AEFB0E990598401A80B2F6
:100D100004900A98401A80B203900698084480B262
:100D200002900B98084480B2019002A90EC902F00B
:100D300099FB18200090DDE908100844049000EBAE
:100D4000D07040100C3880B20290DDE90C100844DD
:100D5000039000EBD0704010801F80B201231A4630
:100D60000190029902F084FC18200090DDE9071040
:100D70000844049000EBD07040100C3880B2029010
:100D8000DDE90C010844039000EBD0704010801F97
:100D900080B2012304220190029902F069FC18201C
:100DA0000090DDE906100844049000EBD07040107C
:100DB0000C3880B20290DDE90C100844039000EB7F
:100DC000D0704010801F80B2012307220190029949
:100DD00002F04EFC18200090DDE908100844049051
:100DE00000EBD07040100C3880B20290DDE90B109F
:100DF0000844039000EBD0704010801F80B20123A4
:100E000002220190029902F033FC18200090DDE9E3
:100E100007100844049000EBD07040100C3880B2EA
:100E20000290DDE90B100844039000EBD0704010F5
:100E3000801F80B2012305220190029902F018FC64
:100E400018200090DDE906100844049000EBD070F3
:100E500040100C3880B20290DDE90B10084403907A
:100E600000EBD0704010801F80B201230822019057
:100E7000029902F0FDFB18200090DDE905100844FE
:100E8000049000EBD07040100C3880B20290DDE985
:100E90000B100844039000EBD0704010801F80B20C
:100EA000012300220190029902F0E2FB1820009039
:100EB000DDE908100844049000EBD07040100C38B5
:100EC00080B20290DDE90A100844039000EBD07074
:100ED0004010801F80B2012303220190029902F08A
:100EE000C7FB18200090DDE907100844049000EBD0
:100EF000D07040100C3880B20290DDE90A1008442E
:100F0000039000EBD0704010801F80B201230622B6
:100F10000190029902F0ACFB18200090DDE9061068
:100F20000844049000EBD07040100C3880B202905E
:100F3000DDE90A010844039000EBD0704010801FE7
:100F400080B2012309220190029902F091FB4FF433
:100F5000784000900E990598401A401E80B2049087
:100F60000C98401A401E80B2039006980844401C1A
:100F700080B202900D980844401C80B2019002A9F2
:100F80000EC902F079F98DA01021CDE90010069864
:100F90000F3080B204900D98801D80B20B463C2229
:100FA0000390049902F00DFC48F21F4000900E9946
:100FB0000598401A401E80B204900A98401A401EBC
:100FC00080B2039006980844401C80B202900B98AF
:100FD0000844401C80B2019002A90EC902F04CF9ED
:100FE00078A01021CDE9001006980F3080B204904F
:100FF0000B980A3080B20B463C220390049902F011
:10100000E0FB0F235A0119460A2002F0D3F93C23D2
:10101000DA0019460A2002F0CDF91F206B4908803A
:10102000002018216AA20B46CDE9002102904FF45E
:1010300096721B2182200CF040FD0020182169A22D
:101040000B46CDE9002102904FF4C872BE21322038
:101050000CF033FD0020182165A20B46CDE90021DC
:1010600002904FF4C872BE21FA200CF026FD002039
:10107000182162A20B46CDE9002102904FF4C872FC
:101080004FF4917132200CF018FD002018215EA25F
:101090000B46CDE9002102904FF4C8724FF49171D4
:1010A000FA200CF00AFD0FB000BD0EB50026002797
:1010B0004FF4A06005F0CEFE05F01EF84FF4165078
:1010C00005F092F801F03FFD00F0B2F902F0B8FB34
:1010D000504908688047504841684820884707F0D1
:1010E000FAF908F065FB4D49012248684CA10AF065
:1010F00064FB00BF0CF0C4FB0028FBD14FF6FF706F
:1011000001F0E4FC4FF478403049088000200C21C5
:1011100044A20B46CDE900210290C822510010469E
:101120000CF0CBFCFFF7A5FCFFF78CFBFFF77EF87C
:1011300004F064FF41E00221012004F0C2FF0446F4
:101140000221084604F0BDFF0546002018210423B3
:101150002246CDE90010962140F2262002F0D2FA74
:101160000020182104232A46CDE90010962140F2E0
:10117000C12002F0C7FA0A2095FBF0F0C0F5E1703B
:101180001FFA80F80A2094FBF0F01E301FFA80F955
:101190000A2097FBF0F0C0F5E1701FFA80FA0A20F0
:1011A00096FBF0F01E301FFA80FB43464A4651463C
:1011B000584602F0FFF826462F46BCE744656C65AA
:1011C00074650000456E7465720000002400002004
:1011D000C7EBCAE4C8EBCFDED6C6B2CECAFD502FED
:1011E0005600000050D7EED0A1D6B53A000000005E
:1011F00050D7EEB4F3D6B53A0000000056D7EED083
:10120000A1D6B53A0000000056D7EEB4F3D6B53AF1
:1012100000000000300000208C010020B8030020F6
:10122000313A0000BFC9D2D4D5FDB3A3CFD4CABED2
:1012300000000000704700BFFEE700BFFEE700BFF0
:10124000FEE700BFFEE77047704770477047000039
:101250000CB50020019000906C48006840F480308C
:101260006A49086000BF6948006800F400300090D7
:101270000198401C0190009818B90198B0F5A06F32
:10128000F1D16248006800F4003010B101200090F4
:1012900001E0002000900098012843D15C480068DC
:1012A00040F010005A4908600846006820F003002A
:1012B00008600846006840F0020008605348406833
:1012C000524948600846406848600846406840F413
:1012D000806048600846406820F47C1048600846FA
:1012E000406840F4E81048600846006840F08070AC
:1012F000086000BF4548006800F000700028F9D081
:101300004248406820F00300404948600846406871
:1013100040F00200486000BF3C48406800F00C000C
:101320000828F9D10CBD10B5FFF792FF10BD10B51C
:101330003648006840F001003449086008464068BB
:10134000344908403149486008460068324908403D
:101350002E4908600846006820F48020086008468E
:10136000406820F4FE0048604FF41F008860FFF7DB
:10137000DAFF4FF000602949086010BD10B5002168
:1013800000200022214B5B6803F00C0121B10429ED
:1013900006D0082928D107E0214B224C236027E002
:1013A0001F4B204C236023E0184B5B6803F4701044
:1013B000164B5B6803F48032022303EB904022B9A2
:1013C000194B4343174C23600DE0104B5B6803F44B
:1013D000003323B1144B4343124C236003E0104B02
:1013E0004343104C236003E00D4B0E4C236000BFC1
:1013F00000BF064B5B68C3F303130C4CE15C094B65
:101400001B68CB40074C236010BD00000010024059
:10141000002002400000FFF8FFFFF6FE08ED00E0AC
:1014200000127A001000002000093D001400002086
:1014300008B50121242005F0A5FA4FF48070ADF81D
:10144000000010208DF8030003208DF8020069468B
:10145000094804F0DBFF4FF48071074805F083F87A
:101460000420ADF800006946044804F0CFFF0421D1
:10147000024805F078F808BD00080140001401405A
:101480004FF48071FD4A516149005161FC49086087
:101490008021516111618900116170474FF48071A1
:1014A000F64A116149005161F54908608021516196
:1014B000116189001161704710B54FF08830F04913
:1014C0000C390860091D08600020ED490860881586
:1014D000EA4908614000486140204861E948808845
:1014E00048F68911884202D1022004F01EFEE44829
:1014F000001F006884B24020E0490861C000086114
:101500004FF03330DE490C390860091D08604FF692
:10151000FF70DB490860204610BD10B504460B463D
:101520002046FFF7ADFF4FF48070D44908614000BA
:101530004861D348036080204861086180000861E9
:1015400010BD10B504462046FFF79AFFFFF7B4FF21
:1015500010BD00B5CB490889FFF792FF00BD4FF4DD
:101560008071C64A116149005161C54908608021F6
:101570005161116189001161704730B5014601F078
:101580001F04C1F34513CA0AE50205EB43151544D0
:10159000A8B230BD00BF011EA0F10102D0B2FAD145
:1015A000704730B504460D46B648808849F241314F
:1015B000884205D0B348808845F21031884240D136
:1015C000B0494889FFF75CFF4FF48070AB49086170
:1015D000400048612012AA4908608020A74948615C
:1015E0000861800008614010086140004861E0B275
:1015F000A34908608020A149486108618000086112
:10160000A0498889FFF73CFF4FF480709B4908612F
:101610004000486128129A49086080209749486133
:101620000861800008614010086140004861E8B22C
:1016300093490860802091494861086180000861F1
:101640008CE19048808846F60401884249D18D4853
:101650008079012804D18B480088401E001B84B289
:1016600088494889FFF70CFF4FF48070834908616F
:101670004000486120128249086080207F4948610B
:101680000861800008614010086140004861E0B2D4
:101690007B490860802079494861086180000861C1
:1016A00078498889FFF7ECFE4FF480707349086130
:1016B0004000486128127249086080206F494861E3
:1016C0000861800008614010086140004861E8B28C
:1016D0006B490860802069494861086180000861A1
:1016E0003CE16848808841F6631188427ED16548B4
:1016F000807900283FD163480088401E001B84B2D7
:1017000060494889FFF7BCFE4FF480705B4908616F
:101710004000486100205A490860802057494861CC
:1017200008618000086140100861400048610020A5
:101730005349086080205149486108618000086170
:10174000401008614000486120124D490860802027
:101750004A49486108618000086140100861400002
:101760004861E0B246490860802044494861086108
:101770008000086141E043494889FFF781FE4FF44A
:1017800080703E4908614000486120123C49086071
:1017900080203A4948610861800008614010086172
:1017A00040004861E0B23649086080203349486112
:1017B00008618000086140100861400048613148BC
:1017C0000088401E00122E49086080202B49486185
:1017D00008618000086140100861400048612948A4
:1017E0000078401EC0B22649086000E04CE080202E
:1017F0002249486108618000086122498889FFF711
:101800003FFE4FF480701D49086140004861281276
:101810001B490860802019494861086180000861FF
:101820004010086140004861E8B215490860802016
:101830001249486108618000086140100861400059
:10184000486110484088401E00120D490860802001
:101850000A49486108618000086140100861400041
:10186000486108488078401EC0B205490860802061
:10187000024948610861800008616FE00010014082
:101880000C0C0140F4030020F748808845F2105109
:10189000884250D1F4494889FFF7F2FD4FF4807037
:1018A000F2490861400048612012F1490860802037
:1018B000EE494861086180000861EB494989491C8B
:1018C00088B2FFF7DDFD4FF48070E8490861400001
:1018D0004861E0B2E64908608020E4494861086157
:1018E00080000861E0498889FFF7CAFD4FF48070E5
:1018F000DE490861400048612812DD490860802007
:10190000DA494861086180000861D7498989491C22
:1019100088B2FFF7B5FD4FF48070D44908614000EC
:101920004861E8B2D24908608020D0494861086126
:101930008000086112E0CC488079012804D1CA48AF
:101940000088401E001B84B2C74948892146FFF722
:10195000E4FDC54988892946FFF7DFFD30BD2DE943
:10196000F04105460E46C0480088A84203DDBE4847
:101970004088B04202DC0020BDE8F08131462846B4
:10198000FFF70FFEB848808849F24131884211D0F4
:10199000B548808846F6040188420BD0B24880885A
:1019A00045F21031884205D0AF48808841F6631176
:1019B000884203D12E20FFF763FD0DE0AA488088FE
:1019C00045F21051884204D14FF43850FFF758FDCA
:1019D00002E02220FFF754FD4FF08830A4490C3973
:1019E0000860091D08604FF6FF70A149086088155E
:1019F0009E49086140004861402048610220FFF78D
:101A0000C9FD9B48001F006884B2402097490861C7
:101A10009548808841F66311884210D14FF40070D8
:101A2000924908614FF0333091490C390860091D23
:101A300008604FF6FF708E49086020469CE7402002
:101A40008A4948610220FFF7A5FD8948001F006808
:101A500084B24020854908618348808849F2413139
:101A600088420BD08048808845F21031884205D0EA
:101A70007D48808845F21051884213D140207B492F
:101A800048610220FFF786FD7948001F00681FFAB1
:101A900080F8402075490861E7B24FF6FF7000EA10
:101AA00007270DE07048808846F60401884207D178
:101AB00040206E49486108616D48001F006884B28B
:101AC0004FF40070694908614FF0333068490C39B0
:101AD0000860091D08604FF6FF706549086062489C
:101AE000808849F22531884216D05F48808844F2C8
:101AF0003551884210D05C488088091F88420BD03D
:101B00005948808848F68911884205D0564880880F
:101B10004BF20551884201D120462DE7524880887A
:101B200049F2413188420BD04F48808845F210314C
:101B3000884205D04C48808845F21051884207D130
:101B4000E012C002B91240EA411040EAE82013E76F
:101B50002046FFF712FD0FE700B54348808849F2A1
:101B60004131884211D04048808846F604018842BD
:101B70000BD03D48808845F21031884205D03A4864
:101B8000808841F66311884203D12920FFF778FC51
:101B90000FE03548808845F21051884204D14FF457
:101BA0002450FFF76DFC04E040F273110720FFF7AB
:101BB000B4FC00BD00B52C48808849F24131884210
:101BC00011D02948808846F6040188420BD0264867
:101BD000808845F21031884205D02348808841F63C
:101BE0006311884203D12820FFF74AFC0EE01E480B
:101BF000808845F21051884204D14FF42050FFF7FD
:101C00003FFC03E000210720FFF787FC00BDF0B593
:101C10000546002400271448807901280BD112487A
:101C2000808846F60401884205D00F48808841F636
:101C30006311884208D10C48807920BB0A4880880B
:101C400041F6631188421ED1082D1BD2DFE805F052
:101C50000406080A12141618062513E0072511E0D9
:101C600004250FE005250DE0F403002000100140DD
:101C70000C0C0140012505E0002503E0032501E0EF
:101C8000022500BF00BFF848808849F241318842F0
:101C900017D0F548808846F60401884211D0F248F2
:101CA000808845F2103188420BD0EF48808845F299
:101CB0001051884205D0EC48808841F66311884273
:101CC0007ED1082D1CD2DFE805F00406090C0F12A6
:101CD000151800BF14E044F0800411E044F0400403
:101CE0000EE044F0C0040BE044F0200408E044F0AF
:101CF000600405E044F0A00402E044F0E00400BF0A
:101D000000BFD948808845F21051884202D14FF473
:101D1000585700E03627D448808845F21031884271
:101D20000DD0D148808845F21051884207D0CE4866
:101D3000808841F66311884201D044F00804CA4803
:101D4000808846F60401884201D144F0020421460D
:101D50003846FFF7E2FBC448808841F663118842A9
:101D60001DD004F0200068B1BF480088BE494988F2
:101D7000884214DABC4806884088BB490880084677
:101D800046800CE0B8480088B7494988884206DD9B
:101D9000B54806884088B449088008464680B2485D
:101DA000808845F2105188427ED1AF494889FFF7BB
:101DB00067FB4FF48070AD4908614000486100E066
:101DC00029E10020AA4908608020A84948610861EB
:101DD00080000861A4494989491C88B2FFF750FB7B
:101DE0004FF48070A1490861400048610020A0497B
:101DF000086080209D4948610861800008619A4917
:101E00004989891C88B2FFF73BFB4FF480709749E2
:101E100008614000486194480088401E00129449BF
:101E200008608020914948610861800008618E49FE
:101E30004989C91C88B2FFF723FB4FF480708B4996
:101E400008614000486188480078401EC0B2884957
:101E500008608020854948610861800008618249E6
:101E60008889FFF70DFB4FF48070804908614000BE
:101E7000486100207E49086080207C4948610861F3
:101E80008000086178498989491C88B2FFF7F8FA0F
:101E90004FF4807075490861400048610020744922
:101EA00008608020714900E034E0486108618000EA
:101EB00008616D498989891C88B2FFF7E1FA4FF4FE
:101EC00080706A4908614000486167484088401E48
:101ED00000126749086080206449486108618000F9
:101EE000086161498989C91C88B2FFF7C9FA4FF4B2
:101EF00080705E490861400048615B488078401E00
:101F0000C0B25B4908608020584948610861800080
:101F10000861A7E054494889FFF7B2FA4FF480708E
:101F20005249086140004861002051490860802002
:101F30004E49486108618000086140100861400016
:101F4000486100204A49086080204849486108618A
:101F500080000861401008614000486142480088E4
:101F6000401E0012424908608020404948610861D3
:101F70008000086140100861400048613A480078DC
:101F8000401EC0B23A490860802038494861086163
:101F90008000086134498889FFF772FA4FF4807035
:101FA00032490861400048610020314908608020C2
:101FB0002E494861086180000861401008614000B6
:101FC000486100202A49086080202849486108614A
:101FD0008000086140100861400048612248408844
:101FE000401E001222490860802020494861086193
:101FF0008000086140100861400048611A488078FC
:10200000401EC0B21A490860802018494861086122
:102010008000086126E0082D1CD2DFE805F00407E7
:102020000A0D0F12151844F0300413E044F01004A8
:1020300010E044F020040DE000BF0BE044F0380451
:1020400008E044F0280405E044F0180402E044F0FD
:10205000080400BF00BF032744F4805421463846DB
:10206000FFF75BFAF0BD0000F40300200010014010
:102070000C0C014030B504460D4629462046FFF7BA
:1020800090FAFFF766FA4FF48070FE49086140004D
:102090004861FD480088FD4908608020F949486191
:1020A00008618000086130BD70B504460D461646D3
:1020B000F748808849F24131884205D0F448808849
:1020C00045F21031884240D1F1494889FFF7D8F9EB
:1020D0004FF48070EB490861400048612012EB49E1
:1020E00008608020E749486108618000086140106D
:1020F000086140004861E0B2E44908608020E1499D
:102100004861086180000861E1498889FFF7B8F9F2
:102110004FF48070DB490861400048612812DB49B8
:1021200008608020D749486108618000086140103C
:10213000086140004861E8B2D44908608020D14974
:1021400048610861800008613DE1D148808845F21E
:102150001051884250D1CE494889FFF791F94FF488
:102160008070C8490861400048612012C749086072
:102170008020C4494861086180000861C4494989D8
:10218000491C88B2FFF77CF94FF48070BD490861A3
:1021900040004861E0B2BD4908608020B94948610B
:1021A000086180000861BA498889FFF769F94FF42E
:1021B0008070B4490861400048612812B349086042
:1021C0008020B0494861086180000861B049898970
:1021D000491C88B2FFF754F94FF48070A94908618F
:1021E00040004861E8B2A94908608020A5494861DB
:1021F000086180000861E6E0A548808841F6631127
:1022000088427DD1A248807920B9A1480088401E2B
:10221000001B84B29E494889FFF732F94FF4807061
:102220009849086140004861201298490860802060
:1022300094494861086180000861401008614000CD
:102240004861E0B29149086080208E494861086188
:1022500080000861401008614000486120128B49ED
:10226000086080208749486108618000086140104B
:10227000086140004861E0B28449086080208149DB
:10228000486108618000086181498889FFF7F8F892
:102290004FF480707B4908614000486128127B49F7
:1022A000086080207749486108618000086140101B
:1022B000086140004861E8B27449086080207149B3
:1022C0004861086180000861401008614000486171
:1022D00028126E49086080206A49486108618000C0
:1022E00008614010086140004861E8B26749086031
:1022F00080206449486108618000086163E0FFE76D
:102300006348808846F60401884249D16048807954
:10231000012804D15E480088401E001B84B25C493D
:102320004889FFF7ADF84FF48070564908614000C6
:10233000486120125549086080205249486108616F
:10234000800008614010086140004861E0B24F49D8
:10235000086080204B4948610861800008614C4951
:102360008889FFF78DF84FF4807046490861400076
:102370004861281245490860802042494861086147
:10238000800008614010086140004861E8B23F49A0
:10239000086080203B49486108618000086112E0C4
:1023A0003B488079012804D139480088401E001B31
:1023B00084B2374948892146FFF7AFF83449888904
:1023C0002946FFF7AAF84FF480702E494861400073
:1023D00048612F4800892D490860802029494861BB
:1023E000086180000861401008614000486127488A
:1023F00006608020486108618000086170BD2DE999
:10240000F0410446BE20FFF73BF84FF480701D49B1
:1024100008614000486105201C4908608020194976
:10242000486108618000086140100861400048610F
:1024300020460BF0F5FF05464FF06632154B0CF0C9
:102440003FF807460BF0A8FF1049086080200D49AF
:1024500048610861800008614010086140004861DF
:1024600001200A490860802006494861086180000F
:1024700008614010086140004861FF20034908607E
:10248000802009E000100140240000200C0C0140D5
:10249000F403002066660440FE494861086180003C
:1024A000086140100861400048610020FA49086056
:1024B0008020F84948610861800008614010086187
:1024C000400048610020F44908608020F1494861DB
:1024D000086180000861BDE8F08110B50446002C59
:1024E00066D1EE498871F02008804FF4A0704880D2
:1024F0000846808849F2413188420BD0E7488088FD
:1025000046F60401884205D0E448808845F210313F
:1025100088421AD12C20E14908812A2048812B20A9
:1025200088810846808846F60401884205D0DB4849
:10253000808845F21031884206D14FF4A070D74907
:1025400008804FF4F0704880A1E0D448808845F2BC
:102550001051884210D14FF43050D04908814FF4C7
:10256000285048814FF42C5088814FF4F070088037
:102570004FF4487048808AE0C848808841F663116B
:1025800088420DD12C20C54908812B2048812A2062
:1025900088814FF4F07008804FF44870488076E0EE
:1025A0002220BE49088120204881212088816EE0B8
:1025B0000120BA4988714FF4A0700880F02048804B
:1025C0000846808849F24131884205D0B348808866
:1025D00045F21031884207D12C20B04908812A20C9
:1025E00048812B2088813FE0AC48808846F6040172
:1025F000884207D12C20A94908812B2048812A2014
:10260000888131E0A548808845F21051884210D178
:102610004FF43050A14908814FF4285048814FF4BD
:102620002C5088814FF4487008804FF4F070488037
:102630001AE09A48808841F6631188420DD12C2017
:10264000964908812A2048812B2088814FF44870C0
:1026500008804FF4F070488006E022208F490881FE
:1026600021204881202088818C48808846F60401FA
:10267000884205D08948808845F21031884206D1C9
:102680004FF4F070854908804FF4A0704880002016
:10269000FFF7BDFA10BD2DE9F04F86B004460D4698
:1026A0009046994604EB0800401E86B205EB0900EF
:1026B000401E87B27948808849F24131884215D05E
:1026C0007648808845F2103188420FD07348808860
:1026D00046F60401884209D07048807901287BD1F0
:1026E0006E48808841F66311884275D16B494889EC
:1026F000FEF7C6FE4FF480706649086140004861ED
:1027000020126549086080206249486108618000A4
:1027100008614010086140004861E0B25E4908600D
:1027200080205C49486108618000086140100861B0
:10273000400048613012584908608020554948617E
:102740000861800008614010086140004861F0B2F3
:102750005149086080204F49486108618000086144
:102760004E498889FEF78CFE4FF480704949086114
:102770004000486128124849086080204549486166
:102780000861800008614010086140004861E8B2BB
:102790004149086080203F49486108618000086124
:1027A000401008614000486138123B4908608020B1
:1027B00038494861086180000861401008614000A4
:1027C0004861F8B2344908608020324948610861A4
:1027D0008000086177E1FFE73048808841F66311A7
:1027E00088427DD12D480088A0EB0800001B84B2F0
:1027F00005EB0900401E1FFA80F928494889FEF7B9
:102800003FFE4FF480702349086140004861201268
:102810002149086080201F494861086180000861E3
:102820004010086140004861E0B21B490860802008
:102830001849486108618000086140100861400043
:10284000486104EB0800401E001213490860802014
:10285000104948610861800008614010086140002B
:10286000486104EB0800401EC0B20B49086080209C
:102870000849486108618000086108498889FEF7B5
:10288000FFFD4FF480700349086140004861281241
:10289000014905E0001001400C0C0140F403002048
:1028A00008608020FE49486108618000086140108E
:1028B000086140004861E8B2FA4908608020F849A0
:1028C000486108618000086140100861400048616B
:1028D0004FEA2920F34908608020F149486100E06F
:1028E00011E0086180000861401008614000486103
:1028F00009F0FF00EB4908608020E9494861086160
:1029000080000861DFE0E848808845F21051884285
:102910007ED1E5494889FEF7B3FD4FF48070E04968
:102920000861400048612012DE4908608020DC49CF
:102930004861086180000861DB494989491C88B207
:10294000FEF79EFD4FF48070D54908614000486154
:10295000E0B2D44908608020D14948610861800014
:102960000861D1494989891C88B2FEF789FD4FF475
:102970008070CB490861400048613012C949086045
:102980008020C7494861086180000861C6494989BB
:10299000C91C88B2FEF774FD4FF48070C04908610D
:1029A00040004861F0B2BF4908608020BC494861DE
:1029B000086180000861BC498889FEF761FD4FF419
:1029C0008070B7490861400048612812B549086025
:1029D0008020B3494861086180000861B249898953
:1029E000491C88B2FEF74CFD4FF48070AC49086179
:1029F00040004861E8B2AB4908608020A8494861BE
:102A0000086180000861A8498989891C88B200E0B2
:102A100026E0FEF735FD4FF48070A14908614000C3
:102A2000486138129F49086080209D4948610861CB
:102A3000800008619C498989C91C88B2FEF720FD85
:102A40004FF480709649086140004861F8B295499A
:102A5000086080209249486108618000086132E086
:102A60009148807901280ED1AA46BB468E4800883D
:102A7000801B401E80B201908B480088001B401EC6
:102A800080B2009003E0A246B34601950097502023
:102A900005905120049052200390532002905146FB
:102AA0000598FEF73AFD59460498FEF736FD019960
:102AB0000398FEF732FD00990298FEF72EFD294695
:102AC0002046FEF76EFD06B0BDE8F08F70B50446F7
:102AD000002675480588408845437348808846F637
:102AE0000401884216D170488079012812D1002053
:102AF0006D4988712A2048812B2088810021084651
:102B0000FEF74FFD0120684988712B2048812A205B
:102B1000888103E000210846FEF743FDFEF719FD1A
:102B200000260DE04FF480705D4908614000486167
:102B30005C48046080204861086180000861761C60
:102B4000AE42EFD370BD08B50121192003F01AFF82
:102B50000121564803F02BFD4FF4F860ADF800005A
:102B600010208DF8030003208DF8020069464C48C0
:102B700003F04CFC4FF4F861494803F0F4FC4FF6C5
:102B8000FF70ADF80000694646480C3803F03EFC83
:102B90004FF6FF7143480C3803F0E5FC322003F098
:102BA000E8FA01210020FEF7B8FC322003F0E1FA38
:102BB0000020FEF7C6FC3C49888008468088FF2834
:102BC0000ADB084680884FF6FF71884204D03648F9
:102BD0008088B0F5134F62D1D320FEF751FCFEF789
:102BE0006BFCFEF769FCFEF767FC2F4988800846FE
:102BF00080884FF6FF7101EA00202B498880FEF79C
:102C00005BFC2949898808432749888008468088D1
:102C100049F24131884242D0BF20FEF731FCFEF735
:102C20004BFCFEF749FCFEF747FCFEF745FC1E494E
:102C30008880084680884FF6FF7101EA00201A4913
:102C40008880FEF739FC184989880843164988802E
:102C50000846808846F6040188427CD0D420FEF7DE
:102C60000FFCFEF729FCFEF727FCFEF725FC0E49BA
:102C70008880084680884FF6FF7101EA00200A49E3
:102C80008880FEF719FC084989880843064988802E
:102C90000846808845F2103188425CD008E05AE04E
:102CA000001001400C0C0140F40300200002300031
:102CB0004FF45A40FEF7E4FBFEF7FEFB4FF45B4097
:102CC000FEF7DEFBFEF7F8FBFE49888008468088A9
:102CD0004FF6FF7101EA0020FA4988804FF45C400A
:102CE000FEF7CEFBFEF7E8FBF64989880843F54975
:102CF000888008468088B0F5004F02D145F2105018
:102D00008880F048808845F21051884223D0A12065
:102D1000FEF7B6FBFEF7D0FBEA498880FEF7CCFB56
:102D2000E8498880084680884FF6FF7101EA002054
:102D3000E4498880FEF7C0FBE24989880843E149FD
:102D400088800846808845F26171884203D141F647
:102D50006310DC498880DB488188DBA00AF04CFFE7
:102D6000D848808841F6631188427DD1E220FEF781
:102D700087FB4FF48070D8490861400048611D20EE
:102D8000D64908608020D449486108618000086104
:102D900040100861400048610220D049086080204E
:102DA000CD49486108618000086140100861400019
:102DB00048610420C94908608020C749486108610A
:102DC00080000861642003F0B0F9E020FEF758FBB2
:102DD0004FF48070C0490861400048610120BF493C
:102DE00008608020BC4948610861800008610A20B1
:102DF00003F0BFF9E020FEF743FB4FF48070B649C3
:102E00000861400048610320B44908608020B2494D
:102E100048610861800008610C2003F0AAF90120D4
:102E2000FEF72EFB0A2003F0A4F9E620FEF728FBAC
:102E30004FF48070A8490861400048612F20A749DD
:102E400008608020A4494861086180000861401042
:102E5000086140004861FF20A049086080209E4929
:102E600048610861800000E0FBE1086140100861F2
:102E700040004861FF2099490860802096494861D8
:102E8000086180000861B020FEF7FAFA4FF4807004
:102E900091490861400048612020904908608020E5
:102EA0008D49486108618000086140100861400058
:102EB000486100208949086080208749486108618D
:102EC0008000086140100861400048610320834988
:102ED00008608020804948610861800008614010D6
:102EE00008614000486140F21F307C490860802042
:102EF000794948610861800008614010086140001C
:102F00004861012075490860802073494861086163
:102F100080000861401008614000486140F2DF1005
:102F20006E49086080206C49486108618000086132
:102F30004010086140004861002068490860802016
:102F400065494861086180000861B420FEF798FA7D
:102F50004FF48070604908614000486104205F4977
:102F6000086080205C494861086180000861401069
:102F700008614000486140F21F40584908608020C5
:102F800055494861086180000861401008614000AF
:102F9000486100205149086080204F49486108611C
:102FA0008000086140100861400048612E204B49B4
:102FB000086080204849486108618000086140102D
:102FC000086140004861002044490860802042496F
:102FD0004861086180000861401008614000486154
:102FE00000203E49086080203B494861086180001C
:102FF00008614010086140004861002037490860BE
:1030000080203549486108618000086140100861EE
:103010004000486100203149086080202E49486105
:10302000086180000861B620FEF72AFA4FF480702C
:103030002949086140004861022028490860802031
:10304000254948610861800008614010086140001E
:1030500048614FF403702149086080201E4948618F
:10306000086180000861401008614000486100204C
:103070001A49086080201849486108618000086189
:103080004010086140004861172014490860802002
:1030900011494861086180000861401008614000E2
:1030A000486115200D49086080200B49486108617E
:1030B0008000086140100861400048610020074915
:1030C00008600DE0F4030020204C43442049443ABA
:1030D00025780D0A00000000001001400C0C014092
:1030E0008020FE4948610861800008614010086145
:1030F000400048610020FA4908608020F749486193
:10310000086180000861F020FEF7BAF94FF4807082
:10311000F2490861400048610320F14908608020BD
:10312000EE4948610861800008612920FEF7A8F98E
:10313000D020FEF7A5F94FF48070E84908614000FF
:1031400048610020E64908608020E4494861086140
:1031500080000861BE20FEF793F94FF48070DF49CC
:103160000861400048610520DD4908608020DB4996
:1031700048610861800008614010086140004861B2
:10318000FE20D74908608020D4494861086180004A
:10319000086140100861400048610120D049086082
:1031A0008020CE49486108618000086140100861B4
:1031B000400048610020CA4908608020C749486132
:1031C00008618000086140100861400048610020EB
:1031D000C34908608020C1494861086180000861D6
:1031E00040100861400048610020BD49086080200F
:1031F000BA494861086180000861B820FEF740F9CB
:103200004FF48070B5490861400048610320B4491B
:1032100008608020B1494861086180000861401061
:103220000861400048610120AD4908608020AB4939
:103230004861086180000861BA20FEF721F94FF467
:103240008070A6490861400048610120A4490860D7
:103250008020A24948610861800008616420FFF76E
:10326000CEF80120FFF739F901209E4908604FF69A
:10327000FF70FFF72BFC08BD2DE9FC4F05460E46FD
:1032800017469846DDF82C900020019096488088DB
:1032900046F60401884229D193488079012825D136
:1032A000AB46354690480088C01B401E86B2474654
:1032B0008D480088A0EB0B00401E1FFA80F800200C
:1032C000894988712A2048812B20888143463A46C3
:1032D00031462846CDF80090FFF7CEFF0120824905
:1032E00088712B2048812A20888127E0781B401C88
:1032F00080B2019034461FE021462846FEF751F97E
:10330000FEF727F94FF0000A11E04FF4807073497F
:103310000861400048617248C0F800908020486110
:103320000861800008610AF101001FFA80FA019823
:103330008245EADB601C84B24445DDDDBDE8FC8FDC
:103340002DE9F84F07460D4690469946DDF828B01E
:10335000A8EB0700401C1FFA80FAA9EB0500401CEF
:1033600080B20090002420E0281981B23846FEF790
:1033700018F9FEF7EEF8002613E04FF48070574975
:1033800008614000486104FB0A603BF810005449A2
:103390000860802051494861086180000861701C04
:1033A00086B25645E9DB601C84B200988442DBDBC0
:1033B000BDE8F88F2DE9FF4F84B081468A46002092
:1033C000039002900698A0EB09050798A0EB0A0667
:1033D000CDF80490CDF800A0002D01DD012705E017
:1033E0000DB9002702E04FF0FF376D42002E02DDDD
:1033F0004FF0010806E016B94FF0000802E04FF068
:10340000FF387642B54201DD2C4600E034464FF0ED
:10341000000B21E0009A91B2019A90B2FEF72AFEC9
:103420000398284403900298304402900398A042E5
:1034300005DD0398001B0390019838440190029821
:10344000A04205DD0298001B0290009840440090C5
:103450000BF101001FFA80FB601C8345DADD08B028
:10346000BDE8F08FF0B504460D4616461F462B46C4
:10347000324629462046FFF79DFF3B462246294615
:103480002046FFF797FF3B46324639462046FFF776
:1034900091FF3B46324629463046FFF78BFFF0BD91
:1034A0002DE9F04306460F4690460024454603208A
:1034B000A0EB480945E07A1B91B2321990B2FEF7B1
:1034C000D9FD3A1B91B2721990B2FEF7D3FD3A19A9
:1034D00091B2721990B2FEF7CDFD07E000100140E5
:1034E0000C0C0140A8012242F40300207A1991B289
:1034F000321990B2FEF7BEFD7A1991B2321B90B22A
:10350000FEF7B8FD3A1991B2721B90B2FEF7B2FD08
:103510007A1B91B2321B90B2FEF7ACFD3A1B91B20E
:10352000721B90B2FEF7A6FD641CB9F1000F03DA1E
:10353000A000801D814404E0601B80000A308144AB
:103540006D1EAC42B7DDBDE8F0832DE9F84F804633
:103550000E4617461C46B3462046E31704EB53734A
:10356000DB1021464FEAE47C04EB5C7C4FEAEC0C78
:10357000A4EBCC0CBCF1000F02D04FF0010C01E029
:103580004FF0000C6344224604EBD27C4FEA6C0CF3
:1035900003FB0CF3DBB20093A7F12000C7B20025B8
:1035A00056E00C2C07D107EB47009F4901EB800048
:1035B00010F8059013E0102C05D19C4800EB071083
:1035C00010F805900BE0182C07D107EBC7009849BD
:1035D00001EB800010F8059001E0BDE8F88F4FF096
:1035E000000A2FE009F0800030B19248028831468D
:1035F0004046FEF759FD07E00A9828B98E48028830
:1036000031464046FEF750FD4FEA49604FEA1069E7
:10361000701C86B289484088B04200DCDDE7A6EB2A
:103620000B00A0420AD15E4608F101001FFA80F8A3
:1036300082480088404500DCCFE706E00AF101003F
:1036400000F0FF0ABAF1080FCCDB00BF681CC5B25E
:1036500000988542A5DB00BFBFE710B502460120F8
:1036600000E050430B1EA1F10104E1B2F9D110BDFD
:103670002DE9FF4F81B0074691461E460E9D4FF043
:10368000000A002439E0301B401EC1B20A20FFF7B7
:10369000E4FFB9FBF0F00A21B0FBF1F201FB1208E4
:1036A000BAF1000F16D1701EA04213DDB8F1000F61
:1036B0000ED10020AB4605EBDB71491001FB047114
:1036C000009088B22B4620220299FFF73EFF12E0BD
:1036D0004FF0010A0020AB4605EBDB71491001FBFE
:1036E0000471009088B208F13001CAB22B460299E9
:1036F000FFF72BFF00BF601CC4B2B442C3DB05B0B0
:10370000BDE8F08F2DE9FF4F82B0064692461F4676
:10371000DDE90F480020019000254DE0781B401E98
:10372000C1B20A20FFF799FFBAFBF0F00A21B0FB03
:10373000F1F201FB1209019850BB781EA84227DD67
:10374000B9F1000F22D108F0800078B108F0010033
:10375000A34604EBDB71491001FB0561009088B2C0
:10376000234630220399FFF7F0FE0EE008F0010037
:10377000A34604EBDB71491001FB0561009088B2A0
:10378000234620220399FFF7E0FE13E00120019079
:1037900008F00100A34604EBDB71491001FB056151
:1037A000009088B209F13001CAB223460399FFF7AD
:1037B000CCFE00BF681CC5B2BD42AFDB06B0BDE8A1
:1037C000F08F2DE9F84704460D4690469946DDE90D
:1037D000096704F0FF0A08EB04001FFA80F809EB00
:1037E00005001FFA80F916E0444502DB5446A8198B
:1037F00085B24D4500DB14E0002000903A78334656
:1038000029462046FFF7A1FE304606EBD07104EBB7
:1038100061018CB27F1C38787E2802DC3878202841
:10382000E2DA00BFBDE8F88752F10008C6F50008EB
:10383000B6FB00082400002026000020F40300202E
:1038400008B50121142003F09DF80121374802F04A
:10385000AEFE4FF40040ADF8000048208DF80300A4
:103860006946334802F0D2FD2020ADF80000482020
:103870008DF8030069462F4802F0C8FD0120ADF81D
:10388000000028208DF803006946294802F0BEFD9B
:1038900008BD10B5044614B1012027490870264818
:1038A000007868B32021234802F043FE58B14FF45A
:1038B00000411F4802F03DFE28B101211C4802F0E2
:1038C00038FE01281CD10A2002F053FC00201A49BE
:1038D00008702021174802F02CFE08B9012010BD05
:1038E0004FF40041124802F024FE08B90220F6E726
:1038F00001210F4802F01DFE012815D10320EEE73B
:1039000020210C4802F015FE01280DD1C103084802
:1039100002F00FFE012807D10121054802F009FE3F
:1039200010B90120044908700020D8E700023000D7
:1039300000080140001001402800002070B5054635
:10394000002405E0601CC4B2C82C01DD002070BD5D
:103950000221314803F03BFC0028F3D029462E48D1
:1039600003F0E2FB002405E0601CC4B2C82C01DDBA
:103970000020ECE70121284803F029FC0028F3D0BF
:10398000254803F0D3FBC0B2E1E708B5012141F2BD
:10399000040002F0F7FFE020ADF8000018208DF8D9
:1039A000030003208DF8020069461C4802F02EFD3A
:1039B000E0211A4802F0D7FD0020194908804FF491
:1039C00082704880002088800220C8800120088101
:1039D00040024881382088810020C8810720088261
:1039E0000D4803F0CBFA01210B4803F06CFBFF20DC
:1039F000FFF7A4FF08BD084909884FF6C7721140B8
:103A0000054A118011460988014311801146098831
:103A100041F0400111807047003001400008014032
:103A20000204002010B500240020D0490860902036
:103A3000FFF784FF0020FFF781FF0020FFF77EFFE4
:103A40000020FFF77BFFFF20FFF778FF44EA002408
:103A5000FF20FFF773FF04430120C549C1F8880127
:103A6000204610BD08B50121042002F08BFF1C2068
:103A7000ADF8000010208DF8030003208DF802003F
:103A80006946BC4802F0C2FC1C21BA4802F06BFD3A
:103A9000FFF77BFF0820FFF7AEFFFFF7C3FFB64934
:103AA000088008BD10B500240020B049086005203A
:103AB000FFF744FFFF20FFF741FF04460120AC4918
:103AC000C1F88801204610BD10B504460020A74962
:103AD00008600120FFF732FF2046FFF72FFF01208B
:103AE000A349C1F8880110BD10B500209F490860A6
:103AF0000620FFF723FF01209D49C1F8880110BD72
:103B000010B50020994908600420FFF717FF012035
:103B10009749C1F8880110BD2DE9F04106460C46D1
:103B200017460020914908600320FFF707FFC4F300
:103B30000740FFF703FFC4F30720FFF7FFFEE0B2E3
:103B4000FFF7FCFE002505E0FF20FFF7F7FE7055AC
:103B5000681C85B2BD42F7DB012084490860BDE8DE
:103B6000F08110B500BFFFF79DFF00F001000028B5
:103B7000F9D110BD2DE9F04106460C461746FFF776
:103B8000B3FF0020794908600220FFF7D7FEC4F395
:103B90000740FFF7D3FEC4F30720FFF7CFFEE0B2E4
:103BA000FFF7CCFE002504E0705DFFF7C7FE681C40
:103BB00085B2BD42F8DB01206C490860FFF7D1FFF8
:103BC000BDE8F0812DE9F04107460E461446F0B2FB
:103BD000C0F58075AC4200DC254612E02A4631462D
:103BE0003846FFF7C7FFAC4200D10BE02F442E440C
:103BF000601B84B2B4F5807F02DD4FF4807500E075
:103C00002546EBE700BFBDE8F08110B5044624036C
:103C1000FFF76AFFFFF7A5FF002054490860202046
:103C2000FFF78CFEC4F30740FFF788FEC4F30720BC
:103C3000FFF784FEE0B2FFF781FE01204C49C1F896
:103C40008801FFF78EFF10BD2DE9F05F834688469F
:103C500016464FF4805004F0CDFC8246BAF1000FB6
:103C600001D1BDE8F09F4FEA1837C8F30B09C9F539
:103C70008054A64200DC344641E039034FF48052C0
:103C80005046FFF749FF002508E009EB05001AF848
:103C90000000FF2800D003E0681C85B2A542F4DBD9
:103CA00000BFA54215DA3846FFF7AFFF002507E051
:103CB0001BF8050005EB09010AF80100681C85B234
:103CC000A542F5DB39034FF480525046FFF77AFFE7
:103CD00004E0224641465846FFF774FFA64200D151
:103CE0000EE07F1C4FF00009A344A044301B86B2B5
:103CF000B6F5805F02DD4FF4805400E03446BCE747
:103D000000BF504604F06AFC00BFAAE710B5FFF7F9
:103D1000EBFEFFF726FF002014490860C720FFF7DD
:103D20000DFE01201249C1F88801FFF71AFF10BDEE
:103D300010B500200D490860B920FFF7FFFD0120F4
:103D40000B49C1F88801032002F0EFF910BD10B54E
:103D5000002006490860AB20FFF7F0FD0120044970
:103D6000C1F88801032002F0E0F910BD880121426A
:103D700000002142000801402A00002010B504463E
:103D80002046FFF7DBFD10BD10B53820FFF733FEEE
:103D900010BD10B50020FFF72EFE10BD08B50121A3
:103DA000042002F0EFFD1C20ADF8000010208DF87B
:103DB000030003208DF802006946F64802F026FB56
:103DC0001C21F44802F0CFFBFFF7DFFD0120F24990
:103DD000086008BD10B50120EF490860FF20FFF71B
:103DE000CDFF10BD10B5002400BFFF20FFF7C6FFB8
:103DF000FF2801D1002010BD641C6FF07F40844279
:103E0000F3D30120F7E710B50020E3490860FFF77E
:103E1000E9FF08B9002010BDFFF7DCFF0120FAE739
:103E200070B505464FF6FF7401E0601E84B2FF20B6
:103E3000FFF7A4FFA84201D0002CF6D10CB9FF2057
:103E400070BD0020FCE770B504460D46FE20FFF76C
:103E5000E7FF08B1012070BD04E0FF20FFF76EFD11
:103E60002070641C281EA5F101018DB2F5D1FF2040
:103E7000FFF784FFFF20FFF781FF0020EBE770B51D
:103E800006460D46FFF7AEFF08B1012070BD28467B
:103E9000FFF774FFFD2D19D0002404E0305DFFF71B
:103EA0004DFD601C84B2B4F5007FF7DBFF20FFF707
:103EB00065FFFF20FFF762FFFF20FFF75FFF04466B
:103EC00004F01F00052801D00220DFE70020DDE715
:103ED0002DE9F04105460C4617464FF00008FFF764
:103EE00079FFFFF790FF10B1FF20BDE8F08145F0AA
:103EF0004000FFF743FF200EFFF740FFC4F30740E9
:103F0000FFF73CFFC4F30720FFF738FFE0B2FFF7ED
:103F100035FF3846FFF732FF0C2D02D1FF20FFF7A7
:103F20002DFF4FF01F0800BFFF20FFF727FF0646B9
:103F300006F0800030B1B8F10000A8F1010101F0F5
:103F4000FF08F1D13046D0E770B5054601220021C7
:103F50000A20FFF7BDFF044624B910212846FFF7C9
:103F600072FF0446FFF736FF0CB1012070BD002040
:103F7000FCE770B50546012200210920FFF7A8FFE4
:103F8000044624B910212846FFF75DFF0446FFF7D9
:103F900021FF0CB1012070BD0020FCE77FB5684611
:103FA000FFF7E7FF10B1002004B070BD9DF80000DE
:103FB00000F0C000402809D19DF809009DF80810C4
:103FC00000EB0120401C84B2A50220E09DF8050012
:103FD00000F00F009DF80A1000EBD1109DF80910B9
:103FE00001F0030100EB4100861C9DF808008011E0
:103FF0009DF8071000EB81009DF8061001F0030109
:1040000000EB8120441CA6F1090004FA00F52846C3
:10401000CAE7F8B5FFF7C2FEFFF7B6FE002504E0D9
:10402000FF20FFF7ABFE681C85B20A2DF8DB1426D3
:1040300000BF952200210846FFF74AFF0446012CE5
:1040400004D0301EA6F101018EB2F2D100205349F6
:104050000870012C4AD187224FF4D5710820FFF750
:1040600037FF012847D1002506E0FF20FFF786FE35
:104070000DF80500681C85B2042DF6DB9DF80200E2
:10408000012879D19DF80300AA2875D14FF6FE7654
:1040900000BF012200213720FFF71AFF01229107FC
:1040A0002920FFF715FF044624B1301EA6F10101B7
:1040B0008EB2EED1002E5FD0012200213A20FFF710
:1040C00007FF002858D1002506E0FF20FFF756FE25
:1040D0000DF80500681C85B2042DF6DB9DF8000084
:1040E00000F0400018B106202C49087044E004207C
:1040F0002A49087040E0012200213720FFF7E8FE3E
:10410000012200212920FFF7E3FE0446012C17DCE1
:104110000220224908704FF6FE7600BF01220021DE
:104120003720FFF7D5FE012200212920FFF7D0FE1E
:104130000446BCB1301EA6F101018EB2EED111E0F1
:104140000120164908704FF6FE7600BF01220021BB
:104150001046FFF7BDFE044624B1301EA6F1010152
:104160008EB2F3D12EB1012251021020FFF7B0FE22
:1041700010B1002009490870FFF72CFEFFF709FE77
:104180000648007808B10020F8BD0CB12046FBE7D6
:10419000AA20F9E7000801408C0121422C000020F0
:1041A0002DE9F04106460F4615463C4800780628A2
:1041B00000D07F02012D0CD1012239461120FFF7DA
:1041C00087FE0446FCB969023046FFF73CFE044610
:1041D00019E0012239461220FFF77AFE044600BF9B
:1041E0004FF400713046FFF72EFE044606F50076C8
:1041F000681EC0B2051E01D0002CF1D001220021A2
:104200000C20FFF765FEFFF7E5FD2046BDE8F081D5
:104210002DE9F04106460F4615462048007806284D
:1042200000D07F02012D0CD1012239461820FFF762
:104230004FFE04466CBBFE213046FFF720FE0446CD
:1042400027E016480078012809D0012200213720F4
:10425000FFF73EFE012229461720FFF739FE012213
:1042600039461920FFF734FE044694B900BFFC21FB
:104270003046FFF704FE044606F50076681EC0B21D
:10428000051E01D0002CF2D0FD210020FFF7F7FD24
:104290000446FFF79FFD2046BDE8F0812C0000207A
:1042A00010B500F0BBF810BD70B50446002600F054
:1042B000CFF82546E11704EB11610912A02202EBA9
:1042C0004101C8B200F072F900F003F9E11704EB04
:1042D00011610912A4EB0121C8B200F067F900F0E6
:1042E000F8F800F0B5F8A12000F060F900F0F1F85E
:1042F000002000F088F9064600F0CCF8304670BD8A
:1043000070B504460E4600F0A3F82546E11704EB0D
:1043100011610912A02202EB4101C8B200F046F976
:1043200000F0D7F8E11704EB11610912A4EB0121A9
:10433000C8B200F03BF900F0CCF8304600F036F996
:1043400000F0C7F800F0A6F80A2001F012FF70BDD7
:104350002DE9F04105460E461746002409E0E2002B
:1043600026FA02F2D1B22A1990B2FFF7C9FF601CF7
:10437000C4B2BC42F3DBBDE8F0812DE9F041074651
:104380000C460026002509E036023919491B491E52
:1043900088B2FFF789FF0644681CC5B2A542F3DB6B
:1043A0003046BDE8F08110B5FF20FFF77DFF0446E1
:1043B000552C01D1002010BD5521FF20FFF7A0FF93
:1043C000FF20FFF771FF0446552C01D10020F2E7D2
:1043D0000120F0E770B506460C46154608E0304669
:1043E000721C96B2FFF760FF04F8010B681E85B2DD
:1043F000002DF4D170BD70B505460C46164606E09A
:1044000021782846FFF77CFF681C85B2641C301EAB
:10441000A6F101018EB2F3D170BD000008B50121F3
:10442000102002F0AFFA4FF4C050ADF80000102099
:104430008DF8030003208DF8020069468A4801F0D8
:10444000E5FF0120894908608949C1F8AC0108BD30
:1044500010B58548406820F470408349486008469C
:10446000406840F44050486001208049091F0860BE
:104470007F49C1F8B001042001F057FE00207B49BC
:10448000091F0860042001F050FE00207849C1F89F
:10449000B00110BD10B57448406820F470407249F6
:1044A00048600846406840F44050486000206F492A
:1044B00008606F49C1F8AC01042001F036FE01200C
:1044C0006A4908606A49C1F8AC01042001F02DFE78
:1044D00010BD10B500246448406820F47040624963
:1044E00048600846406840F40040486001205F4949
:1044F000091F086001F019FE01205D49C1F8B001F3
:1045000001F013FE07E0601CC4B2FA2C03DDFFF7D4
:10451000C1FF012010BD5548843800680028F2D141
:104520005249086000BFF5E710B500204F49086008
:104530004D48406820F470404B4948600846406848
:1045400040F44050486000204949C1F8AC010220C5
:1045500001F0EBFD012045490860022001F0E5FD76
:1045600000204349C1F8B00110BD10B500203F49FB
:1045700008603D48406820F470403B494860084668
:10458000406840F44050486001203949C1F8AC010E
:10459000022001F0CAFD012034490860022001F028
:1045A000C4FD00203249C1F8B00110BD70B5044609
:1045B0002D48406820F470402B4948600846406808
:1045C00040F440504860002028490860002517E06A
:1045D000E0092649091F08606006040E022001F068
:1045E000A4FD01202249C1F8B001022001F09DFD87
:1045F00000201E490860022001F097FD681CC5B22A
:10460000082DE5DB70BD70B50546002416484068EE
:1046100020F47040144948600846406840F4004067
:104620004860002616E0002010490860022001F0D2
:104630007CFD01200E49C1F8B0016006040E0B4854
:104640008438006808B1601CC4B2012001F06DFD1F
:10465000701CC6B2082EE6DB15B9FFF786FF01E035
:10466000FFF762FF204670BD00100140B0012242FA
:104670000000224210B50A2001F057FD10BD9148FC
:10468000806940F010008F4988618F4800684FF2C0
:104690000F0188438C4908600846006843F2030113
:1046A0000843894908600846C06840F00200C860B5
:1046B0000846C06840F00800C860704710B58248DE
:1046C000006820F47040804908600846006840F4A3
:1046D0004050086001207D4908607D49C1F8800193
:1046E000FFF7C8FF002079490860FFF7C3FF0020EB
:1046F0007749C1F8800110BD10B57348006820F4F7
:104700007040714908600846006840F440500860F5
:1047100000206E490C3908606D49C1F88C01FFF723
:10472000A9FF012069490C390860FFF7A3FF0120A8
:104730006749C1F88C0110BD10B5002462480068BB
:1047400020F47040604908600846006840F400406A
:10475000086001205D49086001F0E7FC01205C4928
:10476000C1F8800101F0E1FC07E0601CC4B2FA2C42
:1047700003DDFFF7C1FF012010BD544880380068F9
:104780000028F2D151490C39086000BFF4E710B598
:1047900000204E490C3908604B48006820F47040F6
:1047A000494908600846006840F44050086000200D
:1047B0004749C1F88C01FFF75DFF012043490C39DF
:1047C0000860FFF757FF00204149C1F8800110BD84
:1047D00010B500203D490C3908603B48006820F4C2
:1047E0007040394908600846006840F4405008604D
:1047F00001203749C1F88C01FFF73CFF0120334904
:104800000C390860FFF736FF00203149C1F88001FC
:1048100010BD70B504462C48006820F470402A4949
:1048200008600846006840F44050086000202749AE
:104830000C390860002512E0E00924490860600690
:10484000040E01202249C1F88001FFF713FF002068
:104850001E490C390860FFF70DFF681CC5B2082D12
:10486000EADB70BD70B5054600241748006820F4E7
:104870007040154908600846006840F40040086030
:10488000002614E0002011490C3908601E2001F0B8
:104890004CFC01200E49C1F880016006040E0B4853
:1048A0008038006808B1601CC4B2701CC6B2082E03
:1048B000E8DB15B9FFF78CFF01E0FFF768FF204642
:1048C00070BD000000100240001001408C01224227
:1048D000000022422DE9F04105460E4617464FF0F2
:1048E0000008FFF7EBFE7020FFF793FFFFF724FFB0
:1048F000E8B2FFF78EFFFFF71FFF00240BE0305DEB
:10490000FFF787FFFFF718FF8046B8F1000F00D0D0
:1049100003E0601CC4B2BC42F1DB00BFFFF7ECFE59
:104920004046BDE8F0812DE9F04106460F461546A8
:10493000FFF7C4FE7020FFF76CFFFFF7FDFEF0B23B
:10494000FFF767FFFFF7F8FEFFF7B8FE7120FFF7EC
:1049500060FFFFF7F1FE00240BE0691EA14201D0C9
:10496000012100E000210846FFF77CFF3855601C5C
:10497000C4B2AC42F1DBFFF7BFFEBDE8F0811CB56D
:104980000121102001F0FEFF4FF40050ADF80000AF
:1049900010208DF8030003208DF80200694691482D
:1049A00001F034FD4FF400518E4801F0DCFD02208F
:1049B000ADF8000048208DF803006946894801F0F1
:1049C00025FD0221874801F0CEFDFFF758FE0020AB
:1049D00085490860142001F0CCFB01208349C1F80F
:1049E000B401322001F0C5FB00208DF80400012243
:1049F00001A9FFF76FFF012201A9A420FFF76AFFB9
:104A000016208DF80400012201A98020FFF762FF23
:104A10000C208DF80400012201A98820FFF75AFF1D
:104A2000022201A9A120FFF77EFF9DF80400302893
:104A30000ED19DF8050003280AD19DF805009DF8C8
:104A4000042000EB02216AA009F0D6F800201CBD6A
:104A50000120FCE771B581B000240026674800788A
:104A6000401C66490870084600780A2190FBF1F264
:104A700001FB120018B1614800780A2867DA0122A8
:104A800001A90220FFF74FFF9DF8040000F00F007E
:104A900000287ED09DF8040000F00F00062878DA88
:104AA0009DF8040000F00F01FF208840C5B2E843E4
:104AB000C0B240F0C000524981F8200000245AE002
:104AC0004F4890F820000121A1400840F0B34D4923
:104AD00031F8140004226946FFF725FF484890F892
:104AE000300000F00100C0B19DF801009DF80010F9
:104AF00001F00F0100EB01204149163121F81400AB
:104B00009DF803009DF8021001F00F0100EB012158
:104B10003B480C3020F814101DE09DF801009DF872
:104B2000001001F00F0100EB0120C0F5F07081B220
:104B300033480C3020F814109DF803009DF8021043
:104B400001F00F0100EB01212D4801E011E020E010
:104B5000163020F814109DF8000000F0F0008028B6
:104B600007D000212648163020F814100A3820F803
:104B70001410601CC4B2052CA2DB012620488089D9
:104B800020B91F48C08A08B90020019000201B49A5
:104B900008709DF8040000F01F00D0B9184890F884
:104BA000200000F0800040B1154890F8200020F06F
:104BB0008000134981F820000BE04FF6FF70104988
:104BC0008881C882084690F8200000F0E00081F853
:104BD00020000A480078F02802DD0A200749087002
:104BE00030467CBD00100140B40122420000224248
:104BF0004354502049443A25780D0A002D000020E6
:104C000030000020120901082DE9F04104460E464B
:104C100017464FF00008FFF751FD2820FFF7F9FD78
:104C2000FFF78AFD2012FFF7F4FDFFF785FDE0B2E4
:104C3000FFF7EFFDFFF780FD00250BE0705DFFF74C
:104C4000E8FDFFF779FD8046B8F1000F00D003E0E2
:104C5000681CC5B2BD42F1DB00BFFFF74DFD404609
:104C6000BDE8F08138B50546002400208DF800002D
:104C70008DF8015000BF09E09DF80000CA49095DA8
:104C80000844C0B28DF80000601CC4B2B82CF3D345
:104C90009DF80000C043401CC0B28DF80000B8224F
:104CA000C14948F24700FFF7AFFF0222694648F2C8
:104CB000FF00FFF7A9FF002038BD2DE9F0410546B0
:104CC0000F461646FFF7FAFC2820FFF7A2FDFFF774
:104CD00033FD2812FFF79DFDFFF72EFDE8B2FFF729
:104CE00098FDFFF729FDFFF7E9FC2920FFF791FD6B
:104CF000FFF722FD00240BE0711EA14201D001212B
:104D000000E000210846FFF7ADFD3855601CC4B235
:104D1000B442F1DBFFF7F0FCBDE8F0810EB50121F4
:104D2000102001F02FFE42F20200ADF8000010202A
:104D30008DF8030003208DF8020069469B4801F0BE
:104D400065FB0221994801F00EFC4FF40051974891
:104D500001F009FCFFF793FC0020954908600A2048
:104D600001F007FA01209349C1F8B4010A2001F0CB
:104D700000FA0220ADF8000028208DF803006946F3
:104D80008A4801F043FB0221884801F0EEFB6420D1
:104D900001F0EFF9042201A948F24010FFF78DFF5E
:104DA00000208DF8080001A983A008F025FF85A147
:104DB00001A809F0EDF840BB02208DF804000122A3
:104DC00001A948F24000FFF71FFF012201A948F2A4
:104DD0004700FFF772FF9DF80400602807DA9DF88E
:104DE00004107AA008F008FF0120FFF73BFF0A201B
:104DF00001F0BFF900208DF80400012201A948F25A
:104E00004000FFF701FF00200EBD0120FCE731B597
:104E100082B00024002572480078401C7049087058
:104E2000084600780A2190FBF1F201FB120018B14C
:104E30006B4800780A287DDA012202A948F24E1058
:104E4000FFF73BFF9DF8080000F00F0000286BD033
:104E50009DF8080000F00F00062865DA9DF80800AC
:104E600000F00F01FF208840C0B200909DF80000C4
:104E7000C043C0B240F0C0005A4981F8200000246D
:104E800044E0584890F820000121A140084020B398
:104E9000554931F81400042201A9FFF70EFF5148CB
:104EA00090F8300000F00100C0B19DF804009DF8BA
:104EB000051000EB012081B24A48163020F814108A
:104EC0009DF806009DF8071000EB0120C0F5487022
:104ED00081B244480C3020F8141015E09DF804000D
:104EE0009DF8051000EB012081B23E480C3020F8FF
:104EF00014109DF806009DF8071000EB012081B208
:104F00003848163020F81410601CC4B2052CB8DBE9
:104F100001253448808920B93248C08A08B9002068
:104F2000029000202E4908709DF8080000F08000D3
:104F300000B100E00DE09DF8080000F00F00062829
:104F400007DA002000900122694648F24E10FFF770
:104F50005BFE9DF8080000F08F0080281AD12148E0
:104F600090F8200000F0800040B11E4890F820002A
:104F700020F080001B4981F820000BE04FF6FF7005
:104F800018498881C882084690F8200000F0E000A7
:104F900081F8200012480078F02802DD0A2010492C
:104FA000087028463EBD00001C09010800100140A1
:104FB000B4012242000022424354502049443A2581
:104FC000730D0A0039313437000000004465666112
:104FD000756C74205665723A25640D0A0000000055
:104FE0002E00002030000020D40901082DE9F041F6
:104FF00004460E4617464FF00008FFF75FFBB2204D
:10500000FFF707FCFFF798FB2012FFF702FCFFF702
:1050100093FBE0B2FFF7FDFBFFF78EFB00250BE0F3
:10502000705DFFF7F6FBFFF787FB8046B8F1000FD6
:1050300000D003E0681CC5B2BD42F1DB00BFFFF742
:105040005BFB4046BDE8F0812DE9F04105460F4687
:105050001646FFF733FBB220FFF7DBFBFFF76CFBD5
:105060002812FFF7D6FBFFF767FBE8B2FFF7D1FB8B
:10507000FFF762FBFFF722FBB320FFF7CAFBFFF746
:105080005BFB00240BE0711EA14201D0012100E076
:1050900000210846FFF7E6FB3855601CC4B2B44255
:1050A000F1DBFFF729FBBDE8F08138B504460020AD
:1050B00000900CB180200090012269464FF45060AE
:1050C000FFF794FF38BD1CB500200190012110208E
:1050D00001F058FC0220ADF8000048208DF80300D4
:1050E00003208DF8020069468D4801F08FF90221F6
:1050F0008B4801F038FA4FF40050ADF80000102052
:105100008DF803006946864801F080F94FF400519C
:10511000834801F028FAFFF7B2FA002081490860BD
:10512000642001F026F801207F49C1F8B401642011
:1051300001F01FF80120FFF7B8FF012201A94FF489
:105140005060FFF781FF9DF8041078A008F054FD2F
:105150009DF8040000F0800008B100201CBD012073
:10516000FCE72DE9F14F82B04FF0000AD3467248B8
:105170000078401C70490870084600780A2190FBAE
:10518000F1F201FB120018B16B4800780A287DDAB1
:10519000012202A90020FFF757FF9DF8080000F048
:1051A0001F00002872D09DF8080000F01F0040F09A
:1051B000C000624981F820004FF0000A76E05F48A5
:1051C00090F82000012101FA0AF10840002869D076
:1051D0005B4931F81A00042201A9FFF735FF57484F
:1051E00090F8300000F0010078B39DF807109DF8AA
:1051F000062001EB022009F0FCF80646514A524B0A
:1052000009F05EF9044609F0C7F881B24B48163040
:1052100020F81A109DF805109DF8042001EB0220DB
:1052200009F0E7F80646494A494B09F049F9804632
:105230000022484B09F078FA044609F0ADF881B233
:105240003E480C3020F81A102CE0FFE79DF80710BC
:105250009DF8062001EB022009F0CBF80646394AFA
:10526000394B09F02DF9044609F096F881B233481C
:105270000C3020F81A109DF805109DF8042001EB61
:10528000022009F0B6F80646304A00E01EE0304B36
:1052900009F016F9044609F07FF881B22748163064
:1052A00020F81A100AF1010000F0FF0ABAF1050F08
:1052B00085DB4FF0010B2148808920B91F48C08A47
:1052C00008B90020029000201B4908709DF80800D2
:1052D00000F01F00D0B9194890F8200000F08000BD
:1052E00040B1164890F8200020F08000134981F862
:1052F00020000BE04FF6FF7010498881C8820846F5
:1053000090F8200000F0E00081F820000A480078C2
:10531000F02802DD0A20084908705846BDE8FE8FD3
:1053200000100140B40122420000224243545020A8
:1053300049443A25780D0A002F0000203000002053
:10534000DE0901087B14AE47E17AD43FD881734669
:1053500094F6D23F00008940002100BF15E000F024
:1053600080021AB10122FE4B1A6002E00022FC4BBF
:105370001A604206100E0022F94B0C3B1A60012203
:10538000F84BC3F880214A1CD1B20829E7DB7047EB
:1053900070B50646002500240020F1490C3908604C
:1053A000F049C1F88C01EE49283108603046FFF71A
:1053B000D3FF062000F0B9FE0020EA49C1F88001C1
:1053C000012000F0B2FE0120E5490C390860002000
:1053D000E449C1F8800100BF13E04FF6FF7000EA16
:1053E00044040020DE490C3908600120DD49C1F881
:1053F0008001DB488438006808B1601C84B2681CF6
:10540000C5B2102DE9DB24110120D54928310860EF
:10541000204670BD2DE9FE4380460027002406E0AB
:105420004046FFF7B5FF2DF81400601C84B2052C30
:10543000F6DB002416E0601C85B20FE03DF8140096
:105440003DF81510884207DD3DF814603DF8150061
:105450002DF814002DF81560681C85B2052DEDDBC4
:10546000601C84B2042CE6DB0027012405E03DF833
:105470001400384487B2601C84B2042CF7DB03208C
:1054800097FBF0F086B23046BDE8FE832DE9F0418F
:1054900004460D46B4480078FFF7BCFF0646B34803
:1054A0000078FFF7B7FF074626802F800120BDE870
:1054B000F0817FB504460D4602A903A8FFF7E6FF79
:1054C000064616B9002004B070BD694601A8FFF772
:1054D000DDFF06460EB90020F5E7BDF80400BDF873
:1054E0000C10884206DCBDF80C10BDF80400323008
:1054F00081420CDBBDF80C00BDF80410884236DC9C
:10550000BDF80410BDF80C00323081422FDABDF82E
:105510000000BDF80810884206DCBDF80810BDF890
:105520000000323081420CDBBDF80800BDF80010ED
:1055300088421CDCBDF80010BDF808003230814202
:1055400015DABDF80C10BDF80420881800EBD071F6
:10555000C1F34F012180BDF80810BDF80020881864
:1055600000EBD071C1F34F0129800120ABE700208F
:10557000A9E770B504460D4616467D48068004F13D
:105580000D018AB2193988B22B462946FDF712FF60
:1055900005F10D0083B2193881B222462046FDF78D
:1055A00009FF6A1C91B2621C90B2FCF763FD6A1C91
:1055B00091B2621E90B2FCF75DFD6A1E91B2621C50
:1055C00090B2FCF757FD6A1E91B2621E90B2FCF7D2
:1055D00051FD062229462046FDF762FF70BD70B5D9
:1055E00004460D4616466248068029462046FCF7CA
:1055F00041FD611C88B22946FCF73CFD681C81B264
:105600002046FCF737FD6A1C91B2621C90B2FCF791
:1056100031FD70BD2DE9F0410446514888380068DD
:10562000002856D12CB15349A1F10A00FFF741FFE0
:105630003DE05049A1F10A00FFF73BFFB8B34D49E7
:105640001639B1F92C0009F017FC074649491639FB
:10565000888909F029FC804646481638416A404648
:1056600009F036FC0646394609F066FA054609F0A7
:10567000E3FB404916398881B1F92E0009F0FCFBA3
:1056800007463C491639C88A09F00EFC804639485D
:105690001638816A404609F01BFC0646394609F077
:1056A0004BFA054609F0C8FB32491639C882314821
:1056B000163890F8200000F0800038BBC0202D493B
:1056C000163981F82000084681898182C18AC18308
:1056D0001CE02848163890F8200000F0800050B1F7
:1056E0002448163890F8200020F08000214916390F
:1056F00081F820000AE000211E4816388182C1830B
:105700004FF6FF701B4916398881C8821948163830
:1057100090F8200000F08000BDE8F08170B51549D8
:105720001639486A144909F0D3FB054609F068FBAD
:105730000446042221462820FEF70AFE0D491639A8
:10574000886A0D4909F0C4FB054609F059FB044677
:10575000042221462C20FEF7FBFD064816380DE0FA
:105760008C012242000022426400002065000020DB
:10577000240000204600002020BCBE4CB0F92C10B4
:1057800002223020FEF7E4FDF948B0F92E10022283
:105790003220FEF7DDFDF64890F830103420FEF799
:1057A000AFFD0A2421463520FEF7AAFD70BD70B575
:1057B0003520FEF779FD04460A2C42D10421282029
:1057C000FEF7DBFD0546284609F056FB0646E9498B
:1057D00009F020FAE649486204212C20FEF7CDFDAD
:1057E0000546284609F048FB0646E24909F012FA48
:1057F000DF49886202213020FEF7BFFD00B2DC499C
:10580000888502213220FEF7B8FD00B2D849C8854C
:105810003420FEF749FDD64981F83000084690F85B
:10582000300030B19020D4490870D020D34908709E
:1058300005E0D020D04908709020D04908700120A0
:1058400070BD0020FCE72DE9FC5F04460D461746BD
:105850001E46DDE90EABDDE90C894FF47840C849FE
:105860000880C8A01021CDE90010C74843880288ED
:10587000A0212820FDF7A5FFC4A01021CDE900102C
:10588000C14843880288A0217820FDF79AFFC0A074
:105890001021CDE90010BC4843880288B42128209B
:1058A000FDF78FFFBBA01021CDE90010B64843885B
:1058B0000288B4217820FDF784FFB7A01021CDE93C
:1058C0000010B14843880288C8212820FDF779FFDD
:1058D000B2A01021CDE90010AB4843880288C8214E
:1058E0007820FDF76EFFAEA01021CDE90010A6488C
:1058F00043880288DC212820FDF763FFA9A010213E
:10590000CDE90010A04843880288DC217820FDF70B
:1059100058FFA5A01021CDE900109B4843880288BC
:10592000F0212820FDF74DFF102004232246A0215E
:1059300000904020FDF79CFE102004232A46A02161
:1059400000909020FDF794FE102004233A46B421E5
:1059500000904020FDF78CFE102004233246B42135
:1059600000909020FDF784FE102004234246C821B9
:1059700000904020FDF77CFE102004234A46C821F9
:1059800000909020FDF774FE102004235246DC2185
:1059900000904020FDF76CFE102004235A46DC21C5
:1059A00000909020FDF764FE10200090764801885A
:1059B00003236020109AFDF75BFEBDE8FC9F2DE9F4
:1059C000F04F8BB00024002006904FF6FF70FDF7DB
:1059D0007DF81F206A4908807548006810216423FB
:1059E000A022CDE9001028210846FDF7EAFE4FF479
:1059F000784214210846FFF7BCFD00205C4981F87D
:105A00002000486248E200BF5948416801208847A9
:105A1000574890F8200000F0C00040287ED10020B8
:105A20000690534890F8200020F04000504981F83B
:105A300020000846808907A921F824004C48C08A24
:105A400001EB84014880601CC4B2012C06D0022CFA
:105A500014D0032C25D0042C0FD138E04FF6FF7260
:105A600014210846FFF785FD47490988143988B293
:105A70004FF478421421FFF77CFDFDE1424909888B
:105A8000143988B24FF6FF721421FFF772FD3E48B9
:105A90004088143881B24FF478421420FFF769FD32
:105AA000EAE139484088143881B24FF6FF72142079
:105AB000FFF75FFD344A5288143A91B2324A128895
:105AC000143A90B24FF47842FFF753FDD4E100242A
:105AD000F5E0384911F8241007AA32F82110354AA8
